{
  "_format": "hh-sol-artifact-1",
  "contractName": "MyNFT",
  "sourceName": "../contracts/MyNFT.sol",
  "abi": [
    {
      "inputs": [
        {
          "internalType": "string",
          "name": "name",
          "type": "string"
        },
        {
          "internalType": "string",
          "name": "symbol",
          "type": "string"
        },
        {
          "internalType": "string",
          "name": "baseTokenURI",
          "type": "string"
        }
      ],
      "stateMutability": "nonpayable",
      "type": "constructor"
    },
    {
      "anonymous": false,
      "inputs": [
        {
          "indexed": true,
          "internalType": "address",
          "name": "owner",
          "type": "address"
        },
        {
          "indexed": true,
          "internalType": "address",
          "name": "approved",
          "type": "address"
        },
        {
          "indexed": true,
          "internalType": "uint256",
          "name": "tokenId",
          "type": "uint256"
        }
      ],
      "name": "Approval",
      "type": "event"
    },
    {
      "anonymous": false,
      "inputs": [
        {
          "indexed": true,
          "internalType": "address",
          "name": "owner",
          "type": "address"
        },
        {
          "indexed": true,
          "internalType": "address",
          "name": "operator",
          "type": "address"
        },
        {
          "indexed": false,
          "internalType": "bool",
          "name": "approved",
          "type": "bool"
        }
      ],
      "name": "ApprovalForAll",
      "type": "event"
    },
    {
      "anonymous": false,
      "inputs": [
        {
          "indexed": true,
          "internalType": "address",
          "name": "previousOwner",
          "type": "address"
        },
        {
          "indexed": true,
          "internalType": "address",
          "name": "newOwner",
          "type": "address"
        }
      ],
      "name": "OwnershipTransferred",
      "type": "event"
    },
    {
      "anonymous": false,
      "inputs": [
        {
          "indexed": true,
          "internalType": "address",
          "name": "from",
          "type": "address"
        },
        {
          "indexed": true,
          "internalType": "address",
          "name": "to",
          "type": "address"
        },
        {
          "indexed": true,
          "internalType": "uint256",
          "name": "tokenId",
          "type": "uint256"
        }
      ],
      "name": "Transfer",
      "type": "event"
    },
    {
      "inputs": [
        {
          "internalType": "address",
          "name": "to",
          "type": "address"
        },
        {
          "internalType": "uint256",
          "name": "tokenId",
          "type": "uint256"
        }
      ],
      "name": "approve",
      "outputs": [],
      "stateMutability": "nonpayable",
      "type": "function"
    },
    {
      "inputs": [
        {
          "internalType": "address",
          "name": "owner",
          "type": "address"
        }
      ],
      "name": "balanceOf",
      "outputs": [
        {
          "internalType": "uint256",
          "name": "",
          "type": "uint256"
        }
      ],
      "stateMutability": "view",
      "type": "function"
    },
    {
      "inputs": [
        {
          "internalType": "uint256",
          "name": "tokenId",
          "type": "uint256"
        }
      ],
      "name": "getApproved",
      "outputs": [
        {
          "internalType": "address",
          "name": "",
          "type": "address"
        }
      ],
      "stateMutability": "view",
      "type": "function"
    },
    {
      "inputs": [
        {
          "internalType": "address",
          "name": "owner",
          "type": "address"
        },
        {
          "internalType": "address",
          "name": "operator",
          "type": "address"
        }
      ],
      "name": "isApprovedForAll",
      "outputs": [
        {
          "internalType": "bool",
          "name": "",
          "type": "bool"
        }
      ],
      "stateMutability": "view",
      "type": "function"
    },
    {
      "inputs": [],
      "name": "maxSupply",
      "outputs": [
        {
          "internalType": "uint256",
          "name": "",
          "type": "uint256"
        }
      ],
      "stateMutability": "view",
      "type": "function"
    },
    {
      "inputs": [
        {
          "internalType": "string",
          "name": "imageURI",
          "type": "string"
        }
      ],
      "name": "mintWithURI",
      "outputs": [],
      "stateMutability": "nonpayable",
      "type": "function"
    },
    {
      "inputs": [],
      "name": "name",
      "outputs": [
        {
          "internalType": "string",
          "name": "",
          "type": "string"
        }
      ],
      "stateMutability": "view",
      "type": "function"
    },
    {
      "inputs": [],
      "name": "owner",
      "outputs": [
        {
          "internalType": "address",
          "name": "",
          "type": "address"
        }
      ],
      "stateMutability": "view",
      "type": "function"
    },
    {
      "inputs": [
        {
          "internalType": "uint256",
          "name": "tokenId",
          "type": "uint256"
        }
      ],
      "name": "ownerOf",
      "outputs": [
        {
          "internalType": "address",
          "name": "",
          "type": "address"
        }
      ],
      "stateMutability": "view",
      "type": "function"
    },
    {
      "inputs": [],
      "name": "renounceOwnership",
      "outputs": [],
      "stateMutability": "nonpayable",
      "type": "function"
    },
    {
      "inputs": [
        {
          "internalType": "address",
          "name": "from",
          "type": "address"
        },
        {
          "internalType": "address",
          "name": "to",
          "type": "address"
        },
        {
          "internalType": "uint256",
          "name": "tokenId",
          "type": "uint256"
        }
      ],
      "name": "safeTransferFrom",
      "outputs": [],
      "stateMutability": "nonpayable",
      "type": "function"
    },
    {
      "inputs": [
        {
          "internalType": "address",
          "name": "from",
          "type": "address"
        },
        {
          "internalType": "address",
          "name": "to",
          "type": "address"
        },
        {
          "internalType": "uint256",
          "name": "tokenId",
          "type": "uint256"
        },
        {
          "internalType": "bytes",
          "name": "_data",
          "type": "bytes"
        }
      ],
      "name": "safeTransferFrom",
      "outputs": [],
      "stateMutability": "nonpayable",
      "type": "function"
    },
    {
      "inputs": [
        {
          "internalType": "address",
          "name": "operator",
          "type": "address"
        },
        {
          "internalType": "bool",
          "name": "approved",
          "type": "bool"
        }
      ],
      "name": "setApprovalForAll",
      "outputs": [],
      "stateMutability": "nonpayable",
      "type": "function"
    },
    {
      "inputs": [
        {
          "internalType": "bytes4",
          "name": "interfaceId",
          "type": "bytes4"
        }
      ],
      "name": "supportsInterface",
      "outputs": [
        {
          "internalType": "bool",
          "name": "",
          "type": "bool"
        }
      ],
      "stateMutability": "view",
      "type": "function"
    },
    {
      "inputs": [],
      "name": "symbol",
      "outputs": [
        {
          "internalType": "string",
          "name": "",
          "type": "string"
        }
      ],
      "stateMutability": "view",
      "type": "function"
    },
    {
      "inputs": [
        {
          "internalType": "uint256",
          "name": "index",
          "type": "uint256"
        }
      ],
      "name": "tokenByIndex",
      "outputs": [
        {
          "internalType": "uint256",
          "name": "",
          "type": "uint256"
        }
      ],
      "stateMutability": "view",
      "type": "function"
    },
    {
      "inputs": [
        {
          "internalType": "address",
          "name": "owner",
          "type": "address"
        },
        {
          "internalType": "uint256",
          "name": "index",
          "type": "uint256"
        }
      ],
      "name": "tokenOfOwnerByIndex",
      "outputs": [
        {
          "internalType": "uint256",
          "name": "",
          "type": "uint256"
        }
      ],
      "stateMutability": "view",
      "type": "function"
    },
    {
      "inputs": [
        {
          "internalType": "uint256",
          "name": "tokenId",
          "type": "uint256"
        }
      ],
      "name": "tokenURI",
      "outputs": [
        {
          "internalType": "string",
          "name": "",
          "type": "string"
        }
      ],
      "stateMutability": "view",
      "type": "function"
    },
    {
      "inputs": [],
      "name": "totalSupply",
      "outputs": [
        {
          "internalType": "uint256",
          "name": "",
          "type": "uint256"
        }
      ],
      "stateMutability": "view",
      "type": "function"
    },
    {
      "inputs": [
        {
          "internalType": "address",
          "name": "from",
          "type": "address"
        },
        {
          "internalType": "address",
          "name": "to",
          "type": "address"
        },
        {
          "internalType": "uint256",
          "name": "tokenId",
          "type": "uint256"
        }
      ],
      "name": "transferFrom",
      "outputs": [],
      "stateMutability": "nonpayable",
      "type": "function"
    },
    {
      "inputs": [
        {
          "internalType": "address",
          "name": "newOwner",
          "type": "address"
        }
      ],
      "name": "transferOwnership",
      "outputs": [],
      "stateMutability": "nonpayable",
      "type": "function"
    },
    {
      "inputs": [
        {
          "internalType": "uint256",
          "name": "tokenId",
          "type": "uint256"
        },
        {
          "internalType": "string",
          "name": "newImageURI",
          "type": "string"
        }
      ],
      "name": "updateTokenURI",
      "outputs": [],
      "stateMutability": "nonpayable",
      "type": "function"
    }
  ],
  "bytecode": "0x6080604052610bb8600b553480156200001757600080fd5b50604051620038e9380380620038e983398181016040528101906200003d9190620002a5565b828281600090805190602001906200005792919062000183565b5080600190805190602001906200007092919062000183565b5050506200009362000087620000b560201b60201c565b620000bd60201b60201c565b80600c9080519060200190620000ab92919062000183565b5050505062000477565b600033905090565b6000600a60009054906101000a900473ffffffffffffffffffffffffffffffffffffffff16905081600a60006101000a81548173ffffffffffffffffffffffffffffffffffffffff021916908373ffffffffffffffffffffffffffffffffffffffff1602179055508173ffffffffffffffffffffffffffffffffffffffff168173ffffffffffffffffffffffffffffffffffffffff167f8be0079c531659141344cd1fd0a4f28419497f9722a3daafe3b4186f6b6457e060405160405180910390a35050565b8280546200019190620003e3565b90600052602060002090601f016020900481019282620001b5576000855562000201565b82601f10620001d057805160ff191683800117855562000201565b8280016001018555821562000201579182015b8281111562000200578251825591602001919060010190620001e3565b5b50905062000210919062000214565b5090565b5b808211156200022f57600081600090555060010162000215565b5090565b60006200024a62000244846200037a565b62000346565b9050828152602081018484840111156200026357600080fd5b62000270848285620003ad565b509392505050565b600082601f8301126200028a57600080fd5b81516200029c84826020860162000233565b91505092915050565b600080600060608486031215620002bb57600080fd5b600084015167ffffffffffffffff811115620002d657600080fd5b620002e48682870162000278565b935050602084015167ffffffffffffffff8111156200030257600080fd5b620003108682870162000278565b925050604084015167ffffffffffffffff8111156200032e57600080fd5b6200033c8682870162000278565b9150509250925092565b6000604051905081810181811067ffffffffffffffff8211171562000370576200036f62000448565b5b8060405250919050565b600067ffffffffffffffff82111562000398576200039762000448565b5b601f19601f8301169050602081019050919050565b60005b83811015620003cd578082015181840152602081019050620003b0565b83811115620003dd576000848401525b50505050565b60006002820490506001821680620003fc57607f821691505b6020821081141562000413576200041262000419565b5b50919050565b7f4e487b7100000000000000000000000000000000000000000000000000000000600052602260045260246000fd5b7f4e487b7100000000000000000000000000000000000000000000000000000000600052604160045260246000fd5b61346280620004876000396000f3fe608060405234801561001057600080fd5b50600436106101425760003560e01c806370a08231116100b8578063a22cb4651161007c578063a22cb46514610375578063b88d4fde14610391578063c87b56dd146103ad578063d5abeb01146103dd578063e985e9c5146103fb578063f2fde38b1461042b57610142565b806370a08231146102e3578063715018a6146103135780638da5cb5b1461031d578063947b59ae1461033b57806395d89b411461035757610142565b806318e97fd11161010a57806318e97fd1146101ff57806323b872dd1461021b5780632f745c591461023757806342842e0e146102675780634f6ccce7146102835780636352211e146102b357610142565b806301ffc9a71461014757806306fdde0314610177578063081812fc14610195578063095ea7b3146101c557806318160ddd146101e1575b600080fd5b610161600480360381019061015c9190612487565b610447565b60405161016e9190612e1f565b60405180910390f35b61017f6104c1565b60405161018c9190612e3a565b60405180910390f35b6101af60048036038101906101aa919061251a565b610553565b6040516101bc9190612db8565b60405180910390f35b6101df60048036038101906101da919061244b565b6105d8565b005b6101e96106f0565b6040516101f691906130bc565b60405180910390f35b61021960048036038101906102149190612543565b6106fd565b005b61023560048036038101906102309190612345565b6107ed565b005b610251600480360381019061024c919061244b565b61084d565b60405161025e91906130bc565b60405180910390f35b610281600480360381019061027c9190612345565b6108f2565b005b61029d6004803603810190610298919061251a565b610912565b6040516102aa91906130bc565b60405180910390f35b6102cd60048036038101906102c8919061251a565b6109a9565b6040516102da9190612db8565b60405180910390f35b6102fd60048036038101906102f891906122e0565b610a5b565b60405161030a91906130bc565b60405180910390f35b61031b610b13565b005b610325610b9b565b6040516103329190612db8565b60405180910390f35b610355600480360381019061035091906124d9565b610bc5565b005b61035f610cda565b60405161036c9190612e3a565b60405180910390f35b61038f600480360381019061038a919061240f565b610d6c565b005b6103ab60048036038101906103a69190612394565b610d82565b005b6103c760048036038101906103c2919061251a565b610de4565b6040516103d49190612e3a565b60405180910390f35b6103e5610e95565b6040516103f291906130bc565b60405180910390f35b61041560048036038101906104109190612309565b610e9b565b6040516104229190612e1f565b60405180910390f35b610445600480360381019061044091906122e0565b610f2f565b005b60007f780e9d63000000000000000000000000000000000000000000000000000000007bffffffffffffffffffffffffffffffffffffffffffffffffffffffff1916827bffffffffffffffffffffffffffffffffffffffffffffffffffffffff191614806104ba57506104b982611027565b5b9050919050565b6060600080546104d090613300565b80601f01602080910402602001604051908101604052809291908181526020018280546104fc90613300565b80156105495780601f1061051e57610100808354040283529160200191610549565b820191906000526020600020905b81548152906001019060200180831161052c57829003601f168201915b5050505050905090565b600061055e82611109565b61059d576040517f08c379a000000000000000000000000000000000000000000000000000000000815260040161059490612fdc565b60405180910390fd5b6004600083815260200190815260200160002060009054906101000a900473ffffffffffffffffffffffffffffffffffffffff169050919050565b60006105e3826109a9565b90508073ffffffffffffffffffffffffffffffffffffffff168373ffffffffffffffffffffffffffffffffffffffff161415610654576040517f08c379a000000000000000000000000000000000000000000000000000000000815260040161064b9061303c565b60405180910390fd5b8073ffffffffffffffffffffffffffffffffffffffff16610673611175565b73ffffffffffffffffffffffffffffffffffffffff1614806106a257506106a18161069c611175565b610e9b565b5b6106e1576040517f08c379a00000000000000000000000000000000000000000000000000000000081526004016106d890612f5c565b60405180910390fd5b6106eb838361117d565b505050565b6000600880549050905090565b610705611175565b73ffffffffffffffffffffffffffffffffffffffff16610723610b9b565b73ffffffffffffffffffffffffffffffffffffffff1614610779576040517f08c379a000000000000000000000000000000000000000000000000000000000815260040161077090612ffc565b60405180910390fd5b61078282611109565b6107c1576040517f08c379a00000000000000000000000000000000000000000000000000000000081526004016107b890612f1c565b60405180910390fd5b80600d600084815260200190815260200160002090805190602001906107e8929190612104565b505050565b6107fe6107f8611175565b82611236565b61083d576040517f08c379a00000000000000000000000000000000000000000000000000000000081526004016108349061305c565b60405180910390fd5b610848838383611314565b505050565b600061085883610a5b565b8210610899576040517f08c379a000000000000000000000000000000000000000000000000000000000815260040161089090612e5c565b60405180910390fd5b600660008473ffffffffffffffffffffffffffffffffffffffff1673ffffffffffffffffffffffffffffffffffffffff168152602001908152602001600020600083815260200190815260200160002054905092915050565b61090d83838360405180602001604052806000815250610d82565b505050565b600061091c6106f0565b821061095d576040517f08c379a00000000000000000000000000000000000000000000000000000000081526004016109549061309c565b60405180910390fd5b60088281548110610997577f4e487b7100000000000000000000000000000000000000000000000000000000600052603260045260246000fd5b90600052602060002001549050919050565b6000806002600084815260200190815260200160002060009054906101000a900473ffffffffffffffffffffffffffffffffffffffff169050600073ffffffffffffffffffffffffffffffffffffffff168173ffffffffffffffffffffffffffffffffffffffff161415610a52576040517f08c379a0000000000000000000000000000000000000000000000000000000008152600401610a4990612f9c565b60405180910390fd5b80915050919050565b60008073ffffffffffffffffffffffffffffffffffffffff168273ffffffffffffffffffffffffffffffffffffffff161415610acc576040517f08c379a0000000000000000000000000000000000000000000000000000000008152600401610ac390612f7c565b60405180910390fd5b600360008373ffffffffffffffffffffffffffffffffffffffff1673ffffffffffffffffffffffffffffffffffffffff168152602001908152602001600020549050919050565b610b1b611175565b73ffffffffffffffffffffffffffffffffffffffff16610b39610b9b565b73ffffffffffffffffffffffffffffffffffffffff1614610b8f576040517f08c379a0000000000000000000000000000000000000000000000000000000008152600401610b8690612ffc565b60405180910390fd5b610b996000611570565b565b6000600a60009054906101000a900473ffffffffffffffffffffffffffffffffffffffff16905090565b610bcd611175565b73ffffffffffffffffffffffffffffffffffffffff16610beb610b9b565b73ffffffffffffffffffffffffffffffffffffffff1614610c41576040517f08c379a0000000000000000000000000000000000000000000000000000000008152600401610c3890612ffc565b60405180910390fd5b600b54610c4c6106f0565b10610c8c576040517f08c379a0000000000000000000000000000000000000000000000000000000008152600401610c839061307c565b60405180910390fd5b60006001610c986106f0565b610ca291906131c0565b9050610cae3382611636565b81600d60008381526020019081526020016000209080519060200190610cd5929190612104565b505050565b606060018054610ce990613300565b80601f0160208091040260200160405190810160405280929190818152602001828054610d1590613300565b8015610d625780601f10610d3757610100808354040283529160200191610d62565b820191906000526020600020905b815481529060010190602001808311610d4557829003601f168201915b5050505050905090565b610d7e610d77611175565b8383611804565b5050565b610d93610d8d611175565b83611236565b610dd2576040517f08c379a0000000000000000000000000000000000000000000000000000000008152600401610dc99061305c565b60405180910390fd5b610dde84848484611971565b50505050565b6060610def82611109565b610e2e576040517f08c379a0000000000000000000000000000000000000000000000000000000008152600401610e2590612f1c565b60405180910390fd5b6000610e386119cd565b90506000815111610e585760405180602001604052806000815250610e8d565b80600d6000858152602001908152602001600020604051602001610e7d929190612d94565b6040516020818303038152906040525b915050919050565b600b5481565b6000600560008473ffffffffffffffffffffffffffffffffffffffff1673ffffffffffffffffffffffffffffffffffffffff16815260200190815260200160002060008373ffffffffffffffffffffffffffffffffffffffff1673ffffffffffffffffffffffffffffffffffffffff16815260200190815260200160002060009054906101000a900460ff16905092915050565b610f37611175565b73ffffffffffffffffffffffffffffffffffffffff16610f55610b9b565b73ffffffffffffffffffffffffffffffffffffffff1614610fab576040517f08c379a0000000000000000000000000000000000000000000000000000000008152600401610fa290612ffc565b60405180910390fd5b600073ffffffffffffffffffffffffffffffffffffffff168173ffffffffffffffffffffffffffffffffffffffff16141561101b576040517f08c379a000000000000000000000000000000000000000000000000000000000815260040161101290612e9c565b60405180910390fd5b61102481611570565b50565b60007f80ac58cd000000000000000000000000000000000000000000000000000000007bffffffffffffffffffffffffffffffffffffffffffffffffffffffff1916827bffffffffffffffffffffffffffffffffffffffffffffffffffffffff191614806110f257507f5b5e139f000000000000000000000000000000000000000000000000000000007bffffffffffffffffffffffffffffffffffffffffffffffffffffffff1916827bffffffffffffffffffffffffffffffffffffffffffffffffffffffff1916145b80611102575061110182611a5f565b5b9050919050565b60008073ffffffffffffffffffffffffffffffffffffffff166002600084815260200190815260200160002060009054906101000a900473ffffffffffffffffffffffffffffffffffffffff1673ffffffffffffffffffffffffffffffffffffffff1614159050919050565b600033905090565b816004600083815260200190815260200160002060006101000a81548173ffffffffffffffffffffffffffffffffffffffff021916908373ffffffffffffffffffffffffffffffffffffffff160217905550808273ffffffffffffffffffffffffffffffffffffffff166111f0836109a9565b73ffffffffffffffffffffffffffffffffffffffff167f8c5be1e5ebec7d5bd14f71427d1e84f3dd0314c0f7b2291e5b200ac8c7c3b92560405160405180910390a45050565b600061124182611109565b611280576040517f08c379a000000000000000000000000000000000000000000000000000000000815260040161127790612f3c565b60405180910390fd5b600061128b836109a9565b90508073ffffffffffffffffffffffffffffffffffffffff168473ffffffffffffffffffffffffffffffffffffffff1614806112fa57508373ffffffffffffffffffffffffffffffffffffffff166112e284610553565b73ffffffffffffffffffffffffffffffffffffffff16145b8061130b575061130a8185610e9b565b5b91505092915050565b8273ffffffffffffffffffffffffffffffffffffffff16611334826109a9565b73ffffffffffffffffffffffffffffffffffffffff161461138a576040517f08c379a00000000000000000000000000000000000000000000000000000000081526004016113819061301c565b60405180910390fd5b600073ffffffffffffffffffffffffffffffffffffffff168273ffffffffffffffffffffffffffffffffffffffff1614156113fa576040517f08c379a00000000000000000000000000000000000000000000000000000000081526004016113f190612edc565b60405180910390fd5b611405838383611ac9565b61141060008261117d565b6001600360008573ffffffffffffffffffffffffffffffffffffffff1673ffffffffffffffffffffffffffffffffffffffff16815260200190815260200160002060008282546114609190613216565b925050819055506001600360008473ffffffffffffffffffffffffffffffffffffffff1673ffffffffffffffffffffffffffffffffffffffff16815260200190815260200160002060008282546114b791906131c0565b92505081905550816002600083815260200190815260200160002060006101000a81548173ffffffffffffffffffffffffffffffffffffffff021916908373ffffffffffffffffffffffffffffffffffffffff160217905550808273ffffffffffffffffffffffffffffffffffffffff168473ffffffffffffffffffffffffffffffffffffffff167fddf252ad1be2c89b69c2b068fc378daa952ba7f163c4a11628f55a4df523b3ef60405160405180910390a4505050565b6000600a60009054906101000a900473ffffffffffffffffffffffffffffffffffffffff16905081600a60006101000a81548173ffffffffffffffffffffffffffffffffffffffff021916908373ffffffffffffffffffffffffffffffffffffffff1602179055508173ffffffffffffffffffffffffffffffffffffffff168173ffffffffffffffffffffffffffffffffffffffff167f8be0079c531659141344cd1fd0a4f28419497f9722a3daafe3b4186f6b6457e060405160405180910390a35050565b600073ffffffffffffffffffffffffffffffffffffffff168273ffffffffffffffffffffffffffffffffffffffff1614156116a6576040517f08c379a000000000000000000000000000000000000000000000000000000000815260040161169d90612fbc565b60405180910390fd5b6116af81611109565b156116ef576040517f08c379a00000000000000000000000000000000000000000000000000000000081526004016116e690612ebc565b60405180910390fd5b6116fb60008383611ac9565b6001600360008473ffffffffffffffffffffffffffffffffffffffff1673ffffffffffffffffffffffffffffffffffffffff168152602001908152602001600020600082825461174b91906131c0565b92505081905550816002600083815260200190815260200160002060006101000a81548173ffffffffffffffffffffffffffffffffffffffff021916908373ffffffffffffffffffffffffffffffffffffffff160217905550808273ffffffffffffffffffffffffffffffffffffffff16600073ffffffffffffffffffffffffffffffffffffffff167fddf252ad1be2c89b69c2b068fc378daa952ba7f163c4a11628f55a4df523b3ef60405160405180910390a45050565b8173ffffffffffffffffffffffffffffffffffffffff168373ffffffffffffffffffffffffffffffffffffffff161415611873576040517f08c379a000000000000000000000000000000000000000000000000000000000815260040161186a90612efc565b60405180910390fd5b80600560008573ffffffffffffffffffffffffffffffffffffffff1673ffffffffffffffffffffffffffffffffffffffff16815260200190815260200160002060008473ffffffffffffffffffffffffffffffffffffffff1673ffffffffffffffffffffffffffffffffffffffff16815260200190815260200160002060006101000a81548160ff0219169083151502179055508173ffffffffffffffffffffffffffffffffffffffff168373ffffffffffffffffffffffffffffffffffffffff167f17307eab39ab6107e8899845ad3d59bd9653f200f220920489ca2b5937696c31836040516119649190612e1f565b60405180910390a3505050565b61197c848484611314565b61198884848484611bdd565b6119c7576040517f08c379a00000000000000000000000000000000000000000000000000000000081526004016119be90612e7c565b60405180910390fd5b50505050565b6060600c80546119dc90613300565b80601f0160208091040260200160405190810160405280929190818152602001828054611a0890613300565b8015611a555780601f10611a2a57610100808354040283529160200191611a55565b820191906000526020600020905b815481529060010190602001808311611a3857829003601f168201915b5050505050905090565b60007f01ffc9a7000000000000000000000000000000000000000000000000000000007bffffffffffffffffffffffffffffffffffffffffffffffffffffffff1916827bffffffffffffffffffffffffffffffffffffffffffffffffffffffff1916149050919050565b611ad4838383611d74565b600073ffffffffffffffffffffffffffffffffffffffff168373ffffffffffffffffffffffffffffffffffffffff161415611b1757611b1281611d79565b611b56565b8173ffffffffffffffffffffffffffffffffffffffff168373ffffffffffffffffffffffffffffffffffffffff1614611b5557611b548382611dc2565b5b5b600073ffffffffffffffffffffffffffffffffffffffff168273ffffffffffffffffffffffffffffffffffffffff161415611b9957611b9481611f2f565b611bd8565b8273ffffffffffffffffffffffffffffffffffffffff168273ffffffffffffffffffffffffffffffffffffffff1614611bd757611bd68282612072565b5b5b505050565b6000611bfe8473ffffffffffffffffffffffffffffffffffffffff166120f1565b15611d67578373ffffffffffffffffffffffffffffffffffffffff1663150b7a02611c27611175565b8786866040518563ffffffff1660e01b8152600401611c499493929190612dd3565b602060405180830381600087803b158015611c6357600080fd5b505af1925050508015611c9457506040513d601f19601f82011682018060405250810190611c9191906124b0565b60015b611d17573d8060008114611cc4576040519150601f19603f3d011682016040523d82523d6000602084013e611cc9565b606091505b50600081511415611d0f576040517f08c379a0000000000000000000000000000000000000000000000000000000008152600401611d0690612e7c565b60405180910390fd5b805181602001fd5b63150b7a0260e01b7bffffffffffffffffffffffffffffffffffffffffffffffffffffffff1916817bffffffffffffffffffffffffffffffffffffffffffffffffffffffff191614915050611d6c565b600190505b949350505050565b505050565b6008805490506009600083815260200190815260200160002081905550600881908060018154018082558091505060019003906000526020600020016000909190919091505550565b60006001611dcf84610a5b565b611dd99190613216565b9050600060076000848152602001908152602001600020549050818114611ebe576000600660008673ffffffffffffffffffffffffffffffffffffffff1673ffffffffffffffffffffffffffffffffffffffff168152602001908152602001600020600084815260200190815260200160002054905080600660008773ffffffffffffffffffffffffffffffffffffffff1673ffffffffffffffffffffffffffffffffffffffff168152602001908152602001600020600084815260200190815260200160002081905550816007600083815260200190815260200160002081905550505b6007600084815260200190815260200160002060009055600660008573ffffffffffffffffffffffffffffffffffffffff1673ffffffffffffffffffffffffffffffffffffffff16815260200190815260200160002060008381526020019081526020016000206000905550505050565b60006001600880549050611f439190613216565b9050600060096000848152602001908152602001600020549050600060088381548110611f99577f4e487b7100000000000000000000000000000000000000000000000000000000600052603260045260246000fd5b906000526020600020015490508060088381548110611fe1577f4e487b7100000000000000000000000000000000000000000000000000000000600052603260045260246000fd5b906000526020600020018190555081600960008381526020019081526020016000208190555060096000858152602001908152602001600020600090556008805480612056577f4e487b7100000000000000000000000000000000000000000000000000000000600052603160045260246000fd5b6001900381819060005260206000200160009055905550505050565b600061207d83610a5b565b905081600660008573ffffffffffffffffffffffffffffffffffffffff1673ffffffffffffffffffffffffffffffffffffffff168152602001908152602001600020600083815260200190815260200160002081905550806007600084815260200190815260200160002081905550505050565b600080823b905060008111915050919050565b82805461211090613300565b90600052602060002090601f0160209004810192826121325760008555612179565b82601f1061214b57805160ff1916838001178555612179565b82800160010185558215612179579182015b8281111561217857825182559160200191906001019061215d565b5b509050612186919061218a565b5090565b5b808211156121a357600081600090555060010161218b565b5090565b60006121ba6121b584613108565b6130d7565b9050828152602081018484840111156121d257600080fd5b6121dd8482856132be565b509392505050565b60006121f86121f384613138565b6130d7565b90508281526020810184848401111561221057600080fd5b61221b8482856132be565b509392505050565b600081359050612232816133d0565b92915050565b600081359050612247816133e7565b92915050565b60008135905061225c816133fe565b92915050565b600081519050612271816133fe565b92915050565b600082601f83011261228857600080fd5b81356122988482602086016121a7565b91505092915050565b600082601f8301126122b257600080fd5b81356122c28482602086016121e5565b91505092915050565b6000813590506122da81613415565b92915050565b6000602082840312156122f257600080fd5b600061230084828501612223565b91505092915050565b6000806040838503121561231c57600080fd5b600061232a85828601612223565b925050602061233b85828601612223565b9150509250929050565b60008060006060848603121561235a57600080fd5b600061236886828701612223565b935050602061237986828701612223565b925050604061238a868287016122cb565b9150509250925092565b600080600080608085870312156123aa57600080fd5b60006123b887828801612223565b94505060206123c987828801612223565b93505060406123da878288016122cb565b925050606085013567ffffffffffffffff8111156123f757600080fd5b61240387828801612277565b91505092959194509250565b6000806040838503121561242257600080fd5b600061243085828601612223565b925050602061244185828601612238565b9150509250929050565b6000806040838503121561245e57600080fd5b600061246c85828601612223565b925050602061247d858286016122cb565b9150509250929050565b60006020828403121561249957600080fd5b60006124a78482850161224d565b91505092915050565b6000602082840312156124c257600080fd5b60006124d084828501612262565b91505092915050565b6000602082840312156124eb57600080fd5b600082013567ffffffffffffffff81111561250557600080fd5b612511848285016122a1565b91505092915050565b60006020828403121561252c57600080fd5b600061253a848285016122cb565b91505092915050565b6000806040838503121561255657600080fd5b6000612564858286016122cb565b925050602083013567ffffffffffffffff81111561258157600080fd5b61258d858286016122a1565b9150509250929050565b6125a08161324a565b82525050565b6125af8161325c565b82525050565b60006125c08261317d565b6125ca8185613193565b93506125da8185602086016132cd565b6125e3816133bf565b840191505092915050565b60006125f982613188565b61260381856131a4565b93506126138185602086016132cd565b61261c816133bf565b840191505092915050565b600061263282613188565b61263c81856131b5565b935061264c8185602086016132cd565b80840191505092915050565b6000815461266581613300565b61266f81866131b5565b9450600182166000811461268a576001811461269b576126ce565b60ff198316865281860193506126ce565b6126a485613168565b60005b838110156126c6578154818901526001820191506020810190506126a7565b838801955050505b50505092915050565b60006126e4602b836131a4565b91507f455243373231456e756d657261626c653a206f776e657220696e646578206f7560008301527f74206f6620626f756e64730000000000000000000000000000000000000000006020830152604082019050919050565b600061274a6032836131a4565b91507f4552433732313a207472616e7366657220746f206e6f6e20455243373231526560008301527f63656976657220696d706c656d656e74657200000000000000000000000000006020830152604082019050919050565b60006127b06026836131a4565b91507f4f776e61626c653a206e6577206f776e657220697320746865207a65726f206160008301527f64647265737300000000000000000000000000000000000000000000000000006020830152604082019050919050565b6000612816601c836131a4565b91507f4552433732313a20746f6b656e20616c7265616479206d696e746564000000006000830152602082019050919050565b60006128566024836131a4565b91507f4552433732313a207472616e7366657220746f20746865207a65726f2061646460008301527f72657373000000000000000000000000000000000000000000000000000000006020830152604082019050919050565b60006128bc6019836131a4565b91507f4552433732313a20617070726f766520746f2063616c6c6572000000000000006000830152602082019050919050565b60006128fc6014836131a4565b91507f546f6b656e20646f6573206e6f742065786973740000000000000000000000006000830152602082019050919050565b600061293c602c836131a4565b91507f4552433732313a206f70657261746f7220717565727920666f72206e6f6e657860008301527f697374656e7420746f6b656e00000000000000000000000000000000000000006020830152604082019050919050565b60006129a26038836131a4565b91507f4552433732313a20617070726f76652063616c6c6572206973206e6f74206f7760008301527f6e6572206e6f7220617070726f76656420666f7220616c6c00000000000000006020830152604082019050919050565b6000612a08602a836131a4565b91507f4552433732313a2062616c616e636520717565727920666f7220746865207a6560008301527f726f2061646472657373000000000000000000000000000000000000000000006020830152604082019050919050565b6000612a6e6029836131a4565b91507f4552433732313a206f776e657220717565727920666f72206e6f6e657869737460008301527f656e7420746f6b656e00000000000000000000000000000000000000000000006020830152604082019050919050565b6000612ad46020836131a4565b91507f4552433732313a206d696e7420746f20746865207a65726f20616464726573736000830152602082019050919050565b6000612b14602c836131a4565b91507f4552433732313a20617070726f76656420717565727920666f72206e6f6e657860008301527f697374656e7420746f6b656e00000000000000000000000000000000000000006020830152604082019050919050565b6000612b7a6020836131a4565b91507f4f776e61626c653a2063616c6c6572206973206e6f7420746865206f776e65726000830152602082019050919050565b6000612bba6029836131a4565b91507f4552433732313a207472616e73666572206f6620746f6b656e2074686174206960008301527f73206e6f74206f776e00000000000000000000000000000000000000000000006020830152604082019050919050565b6000612c206021836131a4565b91507f4552433732313a20617070726f76616c20746f2063757272656e74206f776e6560008301527f72000000000000000000000000000000000000000000000000000000000000006020830152604082019050919050565b6000612c866031836131a4565b91507f4552433732313a207472616e736665722063616c6c6572206973206e6f74206f60008301527f776e6572206e6f7220617070726f7665640000000000000000000000000000006020830152604082019050919050565b6000612cec6012836131a4565b91507f4d617820737570706c79207265616368656400000000000000000000000000006000830152602082019050919050565b6000612d2c602c836131a4565b91507f455243373231456e756d657261626c653a20676c6f62616c20696e646578206f60008301527f7574206f6620626f756e647300000000000000000000000000000000000000006020830152604082019050919050565b612d8e816132b4565b82525050565b6000612da08285612627565b9150612dac8284612658565b91508190509392505050565b6000602082019050612dcd6000830184612597565b92915050565b6000608082019050612de86000830187612597565b612df56020830186612597565b612e026040830185612d85565b8181036060830152612e1481846125b5565b905095945050505050565b6000602082019050612e3460008301846125a6565b92915050565b60006020820190508181036000830152612e5481846125ee565b905092915050565b60006020820190508181036000830152612e75816126d7565b9050919050565b60006020820190508181036000830152612e958161273d565b9050919050565b60006020820190508181036000830152612eb5816127a3565b9050919050565b60006020820190508181036000830152612ed581612809565b9050919050565b60006020820190508181036000830152612ef581612849565b9050919050565b60006020820190508181036000830152612f15816128af565b9050919050565b60006020820190508181036000830152612f35816128ef565b9050919050565b60006020820190508181036000830152612f558161292f565b9050919050565b60006020820190508181036000830152612f7581612995565b9050919050565b60006020820190508181036000830152612f95816129fb565b9050919050565b60006020820190508181036000830152612fb581612a61565b9050919050565b60006020820190508181036000830152612fd581612ac7565b9050919050565b60006020820190508181036000830152612ff581612b07565b9050919050565b6000602082019050818103600083015261301581612b6d565b9050919050565b6000602082019050818103600083015261303581612bad565b9050919050565b6000602082019050818103600083015261305581612c13565b9050919050565b6000602082019050818103600083015261307581612c79565b9050919050565b6000602082019050818103600083015261309581612cdf565b9050919050565b600060208201905081810360008301526130b581612d1f565b9050919050565b60006020820190506130d16000830184612d85565b92915050565b6000604051905081810181811067ffffffffffffffff821117156130fe576130fd613390565b5b8060405250919050565b600067ffffffffffffffff82111561312357613122613390565b5b601f19601f8301169050602081019050919050565b600067ffffffffffffffff82111561315357613152613390565b5b601f19601f8301169050602081019050919050565b60008190508160005260206000209050919050565b600081519050919050565b600081519050919050565b600082825260208201905092915050565b600082825260208201905092915050565b600081905092915050565b60006131cb826132b4565b91506131d6836132b4565b9250827fffffffffffffffffffffffffffffffffffffffffffffffffffffffffffffffff0382111561320b5761320a613332565b5b828201905092915050565b6000613221826132b4565b915061322c836132b4565b92508282101561323f5761323e613332565b5b828203905092915050565b600061325582613294565b9050919050565b60008115159050919050565b60007fffffffff0000000000000000000000000000000000000000000000000000000082169050919050565b600073ffffffffffffffffffffffffffffffffffffffff82169050919050565b6000819050919050565b82818337600083830152505050565b60005b838110156132eb5780820151818401526020810190506132d0565b838111156132fa576000848401525b50505050565b6000600282049050600182168061331857607f821691505b6020821081141561332c5761332b613361565b5b50919050565b7f4e487b7100000000000000000000000000000000000000000000000000000000600052601160045260246000fd5b7f4e487b7100000000000000000000000000000000000000000000000000000000600052602260045260246000fd5b7f4e487b7100000000000000000000000000000000000000000000000000000000600052604160045260246000fd5b6000601f19601f8301169050919050565b6133d98161324a565b81146133e457600080fd5b50565b6133f08161325c565b81146133fb57600080fd5b50565b61340781613268565b811461341257600080fd5b50565b61341e816132b4565b811461342957600080fd5b5056fea2646970667358221220bb0ed713a8c3f80294875ead6d30544db062e81c0562f77feaff1e67dc164f2164736f6c63430008000033",
  "linkReferences": {},
  "deployedLinkReferences": {}
}